{
  "_format": "hh3-artifact-1",
  "contractName": "DocVaultPayment",
  "sourceName": "contracts/DocVaultPayment.sol",
  "abi": [
    {
      "inputs": [
        {
          "internalType": "address",
          "name": "storageAddr",
          "type": "address"
        },
        {
          "internalType": "address",
          "name": "accessAddr",
          "type": "address"
        },
        {
          "internalType": "address",
          "name": "_platformWallet",
          "type": "address"
        }
      ],
      "stateMutability": "nonpayable",
      "type": "constructor"
    },
    {
      "inputs": [
        {
          "internalType": "string",
          "name": "cid",
          "type": "string"
        },
        {
          "internalType": "address",
          "name": "buyer",
          "type": "address"
        }
      ],
      "name": "AlreadyHasAccess",
      "type": "error"
    },
    {
      "inputs": [
        {
          "internalType": "string",
          "name": "cid",
          "type": "string"
        }
      ],
      "name": "DocumentNotForSale",
      "type": "error"
    },
    {
      "inputs": [
        {
          "internalType": "string",
          "name": "cid",
          "type": "string"
        }
      ],
      "name": "DocumentNotFound",
      "type": "error"
    },
    {
      "inputs": [
        {
          "internalType": "uint256",
          "name": "required",
          "type": "uint256"
        },
        {
          "internalType": "uint256",
          "name": "sent",
          "type": "uint256"
        }
      ],
      "name": "InsufficientPayment",
      "type": "error"
    },
    {
      "inputs": [
        {
          "internalType": "string",
          "name": "cid",
          "type": "string"
        }
      ],
      "name": "NotDocumentOwner",
      "type": "error"
    },
    {
      "inputs": [],
      "name": "OnlyOwner",
      "type": "error"
    },
    {
      "anonymous": false,
      "inputs": [
        {
          "indexed": true,
          "internalType": "string",
          "name": "cid",
          "type": "string"
        },
        {
          "indexed": true,
          "internalType": "address",
          "name": "buyer",
          "type": "address"
        },
        {
          "indexed": true,
          "internalType": "address",
          "name": "docOwner",
          "type": "address"
        },
        {
          "indexed": false,
          "internalType": "uint256",
          "name": "amount",
          "type": "uint256"
        },
        {
          "indexed": false,
          "internalType": "uint256",
          "name": "platformFee",
          "type": "uint256"
        }
      ],
      "name": "AccessPurchased",
      "type": "event"
    },
    {
      "anonymous": false,
      "inputs": [
        {
          "indexed": true,
          "internalType": "string",
          "name": "cid",
          "type": "string"
        },
        {
          "indexed": false,
          "internalType": "uint256",
          "name": "priceWei",
          "type": "uint256"
        }
      ],
      "name": "PriceSet",
      "type": "event"
    },
    {
      "inputs": [],
      "name": "accessContract",
      "outputs": [
        {
          "internalType": "contract DocVaultAccess",
          "name": "",
          "type": "address"
        }
      ],
      "stateMutability": "view",
      "type": "function"
    },
    {
      "inputs": [
        {
          "internalType": "string",
          "name": "",
          "type": "string"
        }
      ],
      "name": "docPrice",
      "outputs": [
        {
          "internalType": "uint256",
          "name": "",
          "type": "uint256"
        }
      ],
      "stateMutability": "view",
      "type": "function"
    },
    {
      "inputs": [],
      "name": "owner",
      "outputs": [
        {
          "internalType": "address",
          "name": "",
          "type": "address"
        }
      ],
      "stateMutability": "view",
      "type": "function"
    },
    {
      "inputs": [],
      "name": "platformFeeBps",
      "outputs": [
        {
          "internalType": "uint256",
          "name": "",
          "type": "uint256"
        }
      ],
      "stateMutability": "view",
      "type": "function"
    },
    {
      "inputs": [],
      "name": "platformWallet",
      "outputs": [
        {
          "internalType": "address",
          "name": "",
          "type": "address"
        }
      ],
      "stateMutability": "view",
      "type": "function"
    },
    {
      "inputs": [
        {
          "internalType": "string",
          "name": "cid",
          "type": "string"
        }
      ],
      "name": "purchaseAccess",
      "outputs": [],
      "stateMutability": "payable",
      "type": "function"
    },
    {
      "inputs": [
        {
          "internalType": "uint256",
          "name": "newFeeBps",
          "type": "uint256"
        }
      ],
      "name": "setPlatformFee",
      "outputs": [],
      "stateMutability": "nonpayable",
      "type": "function"
    },
    {
      "inputs": [
        {
          "internalType": "address",
          "name": "newWallet",
          "type": "address"
        }
      ],
      "name": "setPlatformWallet",
      "outputs": [],
      "stateMutability": "nonpayable",
      "type": "function"
    },
    {
      "inputs": [
        {
          "internalType": "string",
          "name": "cid",
          "type": "string"
        },
        {
          "internalType": "uint256",
          "name": "priceWei",
          "type": "uint256"
        }
      ],
      "name": "setPrice",
      "outputs": [],
      "stateMutability": "nonpayable",
      "type": "function"
    },
    {
      "inputs": [],
      "name": "storageContract",
      "outputs": [
        {
          "internalType": "contract DocVaultStorage",
          "name": "",
          "type": "address"
        }
      ],
      "stateMutability": "view",
      "type": "function"
    },
    {
      "inputs": [
        {
          "internalType": "string",
          "name": "",
          "type": "string"
        }
      ],
      "name": "totalRevenue",
      "outputs": [
        {
          "internalType": "uint256",
          "name": "",
          "type": "uint256"
        }
      ],
      "stateMutability": "view",
      "type": "function"
    }
  ],
  "bytecode": "0x60c060405260fa5f55348015610013575f5ffd5b50604051610d9f380380610d9f83398101604081905261003291610089565b6001600160a01b0392831660805290821660a05260018054919092166001600160a01b03199182161790915560028054909116331790556100c9565b80516001600160a01b0381168114610084575f5ffd5b919050565b5f5f5f6060848603121561009b575f5ffd5b6100a48461006e565b92506100b26020850161006e565b91506100c06040850161006e565b90509250925092565b60805160a051610c8c6101135f395f81816102200152818161040801526105ea01525f818160af015281816102e8015281816104bd0152818161070201526107aa0152610c8c5ff3fe60806040526004361061009a575f3560e01c80635ce5bedc116100625780635ce5bedc1461016357806369094be21461019a5780638831e9cf146101d15780638da5cb5b146101f0578063a64c5f4e1461020f578063fa2af9da14610242575f5ffd5b806311ce02671461009e57806312e8e2c3146100ee5780631eacd7db1461010f57806322dcd13e1461012257806322e0119214610144575b5f5ffd5b3480156100a9575f5ffd5b506100d17f000000000000000000000000000000000000000000000000000000000000000081565b6040516001600160a01b0390911681526020015b60405180910390f35b3480156100f9575f5ffd5b5061010d610108366004610912565b610261565b005b61010d61011d36600461096e565b6102d1565b34801561012d575f5ffd5b506101365f5481565b6040519081526020016100e5565b34801561014f575f5ffd5b5061010d61015e3660046109ad565b6106eb565b34801561016e575f5ffd5b5061013661017d366004610a09565b805160208183018101805160038252928201919093012091525481565b3480156101a5575f5ffd5b506101366101b4366004610a09565b805160208183018101805160048252928201919093012091525481565b3480156101dc575f5ffd5b5061010d6101eb366004610ad3565b6108c5565b3480156101fb575f5ffd5b506002546100d1906001600160a01b031681565b34801561021a575f5ffd5b506100d17f000000000000000000000000000000000000000000000000000000000000000081565b34801561024d575f5ffd5b506001546100d1906001600160a01b031681565b6002546001600160a01b0316331461028c57604051635fc483c560e01b815260040160405180910390fd5b6103e88111156102cd5760405162461bcd60e51b81526020600482015260076024820152664d61782031302560c81b60448201526064015b60405180910390fd5b5f55565b60405163a77015d160e01b81526001600160a01b037f0000000000000000000000000000000000000000000000000000000000000000169063a77015d19061031f9085908590600401610b1d565b602060405180830381865afa15801561033a573d5f5f3e3d5ffd5b505050506040513d601f19601f8201168201806040525081019061035e9190610b38565b61037f578181604051635196b5a360e01b81526004016102c4929190610b1d565b5f60038383604051610392929190610b57565b9081526020016040518091039020549050805f036103c7578282604051633b1fb1a560e21b81526004016102c4929190610b1d565b803410156103f15760405163b99e2ab760e01b8152600481018290523460248201526044016102c4565b604051635f129b2560e11b81526001600160a01b037f0000000000000000000000000000000000000000000000000000000000000000169063be25364a9061044190869086903390600401610b66565b602060405180830381865afa15801561045c573d5f5f3e3d5ffd5b505050506040513d601f19601f820116820180604052508101906104809190610b38565b156104a45782823360405163349ddcdb60e21b81526004016102c493929190610b66565b604051632557a50960e11b81525f906001600160a01b037f00000000000000000000000000000000000000000000000000000000000000001690634aaf4a12906104f49087908790600401610b1d565b602060405180830381865afa15801561050f573d5f5f3e3d5ffd5b505050506040513d601f19601f820116820180604052508101906105339190610b91565b90505f6127105f54346105469190610bc0565b6105509190610bdd565b90505f61055d8234610bfc565b6040519091506001600160a01b0384169082156108fc029083905f818181858888f19350505050158015610593573d5f5f3e3d5ffd5b5081156105d3576001546040516001600160a01b039091169083156108fc029084905f818181858888f193505050501580156105d1573d5f5f3e3d5ffd5b505b604051637d2c170d60e01b81526001600160a01b037f00000000000000000000000000000000000000000000000000000000000000001690637d2c170d90610625908990899033908990600401610c0f565b5f604051808303815f87803b15801561063c575f5ffd5b505af115801561064e573d5f5f3e3d5ffd5b505050503460048787604051610665929190610b57565b90815260200160405180910390205f8282546106819190610c43565b90915550506040516001600160a01b0384169033906106a39089908990610b57565b6040805191829003822085835260208301879052917f5221003163ab72ef632a6164f9d338287c1e24c6bb885954b4de00ddcc8d93eb910160405180910390a4505050505050565b60405163a77015d160e01b81526001600160a01b037f0000000000000000000000000000000000000000000000000000000000000000169063a77015d1906107399086908690600401610b1d565b602060405180830381865afa158015610754573d5f5f3e3d5ffd5b505050506040513d601f19601f820116820180604052508101906107789190610b38565b610799578282604051635196b5a360e01b81526004016102c4929190610b1d565b604051632557a50960e11b815233907f00000000000000000000000000000000000000000000000000000000000000006001600160a01b031690634aaf4a12906107e99087908790600401610b1d565b602060405180830381865afa158015610804573d5f5f3e3d5ffd5b505050506040513d601f19601f820116820180604052508101906108289190610b91565b6001600160a01b0316146108535782826040516336889f4f60e01b81526004016102c4929190610b1d565b8060038484604051610866929190610b57565b908152604051908190036020018120919091556108869084908490610b57565b604051908190038120828252907fd36541c06b2fd871e44629372893c1c3d4dd782ebe28a03689b3e3bb6d495f749060200160405180910390a2505050565b6002546001600160a01b031633146108f057604051635fc483c560e01b815260040160405180910390fd5b600180546001600160a01b0319166001600160a01b0392909216919091179055565b5f60208284031215610922575f5ffd5b5035919050565b5f5f83601f840112610939575f5ffd5b50813567ffffffffffffffff811115610950575f5ffd5b602083019150836020828501011115610967575f5ffd5b9250929050565b5f5f6020838503121561097f575f5ffd5b823567ffffffffffffffff811115610995575f5ffd5b6109a185828601610929565b90969095509350505050565b5f5f5f604084860312156109bf575f5ffd5b833567ffffffffffffffff8111156109d5575f5ffd5b6109e186828701610929565b909790965060209590950135949350505050565b634e487b7160e01b5f52604160045260245ffd5b5f60208284031215610a19575f5ffd5b813567ffffffffffffffff811115610a2f575f5ffd5b8201601f81018413610a3f575f5ffd5b803567ffffffffffffffff811115610a5957610a596109f5565b604051601f8201601f19908116603f0116810167ffffffffffffffff81118282101715610a8857610a886109f5565b604052818152828201602001861015610a9f575f5ffd5b816020840160208301375f91810160200191909152949350505050565b6001600160a01b0381168114610ad0575f5ffd5b50565b5f60208284031215610ae3575f5ffd5b8135610aee81610abc565b9392505050565b81835281816020850137505f828201602090810191909152601f909101601f19169091010190565b602081525f610b30602083018486610af5565b949350505050565b5f60208284031215610b48575f5ffd5b81518015158114610aee575f5ffd5b818382375f9101908152919050565b604081525f610b79604083018587610af5565b905060018060a01b0383166020830152949350505050565b5f60208284031215610ba1575f5ffd5b8151610aee81610abc565b634e487b7160e01b5f52601160045260245ffd5b8082028115828204841417610bd757610bd7610bac565b92915050565b5f82610bf757634e487b7160e01b5f52601260045260245ffd5b500490565b81810381811115610bd757610bd7610bac565b606081525f610c22606083018688610af5565b6001600160a01b039485166020840152929093166040909101529392505050565b80820180821115610bd757610bd7610bac56fea2646970667358221220171b6a07cde5fafd67ed2b357571cad108d90b7f552c3aef512cd6d729d09e0064736f6c634300081c0033",
  "linkReferences": {},
  "deployedLinkReferences": {},
  "immutableReferences": {
    "356": [
      {
        "length": 32,
        "start": 175
      },
      {
        "length": 32,
        "start": 744
      },
      {
        "length": 32,
        "start": 1213
      },
      {
        "length": 32,
        "start": 1794
      },
      {
        "length": 32,
        "start": 1962
      }
    ],
    "359": [
      {
        "length": 32,
        "start": 544
      },
      {
        "length": 32,
        "start": 1032
      },
      {
        "length": 32,
        "start": 1514
      }
    ]
  },
  "inputSourceName": "project/contracts/DocVaultPayment.sol",
  "buildInfoId": "solc-0_8_28-e6a1fd8361c984d6bef656e4147c642a190b0fa3"
}