{
  "_format": "hh3-artifact-1",
  "contractName": "DocVaultSigning",
  "sourceName": "contracts/DocVaultSigning.sol",
  "abi": [
    {
      "inputs": [
        {
          "internalType": "address",
          "name": "storageAddr",
          "type": "address"
        }
      ],
      "stateMutability": "nonpayable",
      "type": "constructor"
    },
    {
      "inputs": [
        {
          "internalType": "uint256",
          "name": "sessionId",
          "type": "uint256"
        },
        {
          "internalType": "address",
          "name": "signer",
          "type": "address"
        }
      ],
      "name": "AlreadySigned",
      "type": "error"
    },
    {
      "inputs": [
        {
          "internalType": "uint256",
          "name": "sessionId",
          "type": "uint256"
        }
      ],
      "name": "DeadlinePassed",
      "type": "error"
    },
    {
      "inputs": [],
      "name": "DeadlineTooShort",
      "type": "error"
    },
    {
      "inputs": [
        {
          "internalType": "string",
          "name": "cid",
          "type": "string"
        }
      ],
      "name": "DocumentNotFound",
      "type": "error"
    },
    {
      "inputs": [],
      "name": "NoSignersProvided",
      "type": "error"
    },
    {
      "inputs": [
        {
          "internalType": "string",
          "name": "cid",
          "type": "string"
        }
      ],
      "name": "NotDocumentOwner",
      "type": "error"
    },
    {
      "inputs": [
        {
          "internalType": "uint256",
          "name": "sessionId",
          "type": "uint256"
        },
        {
          "internalType": "address",
          "name": "caller",
          "type": "address"
        }
      ],
      "name": "NotRequiredSigner",
      "type": "error"
    },
    {
      "inputs": [
        {
          "internalType": "uint256",
          "name": "sessionId",
          "type": "uint256"
        }
      ],
      "name": "SessionNotFound",
      "type": "error"
    },
    {
      "inputs": [
        {
          "internalType": "uint256",
          "name": "sessionId",
          "type": "uint256"
        }
      ],
      "name": "SessionNotPending",
      "type": "error"
    },
    {
      "anonymous": false,
      "inputs": [
        {
          "indexed": true,
          "internalType": "uint256",
          "name": "sessionId",
          "type": "uint256"
        },
        {
          "indexed": true,
          "internalType": "address",
          "name": "signer",
          "type": "address"
        },
        {
          "indexed": false,
          "internalType": "uint256",
          "name": "signedAt",
          "type": "uint256"
        }
      ],
      "name": "DocumentSigned",
      "type": "event"
    },
    {
      "anonymous": false,
      "inputs": [
        {
          "indexed": true,
          "internalType": "uint256",
          "name": "sessionId",
          "type": "uint256"
        }
      ],
      "name": "SessionCancelled",
      "type": "event"
    },
    {
      "anonymous": false,
      "inputs": [
        {
          "indexed": true,
          "internalType": "uint256",
          "name": "sessionId",
          "type": "uint256"
        },
        {
          "indexed": true,
          "internalType": "string",
          "name": "cid",
          "type": "string"
        },
        {
          "indexed": false,
          "internalType": "address",
          "name": "initiator",
          "type": "address"
        },
        {
          "indexed": false,
          "internalType": "address[]",
          "name": "signers",
          "type": "address[]"
        },
        {
          "indexed": false,
          "internalType": "uint256",
          "name": "deadline",
          "type": "uint256"
        }
      ],
      "name": "SessionCreated",
      "type": "event"
    },
    {
      "anonymous": false,
      "inputs": [
        {
          "indexed": true,
          "internalType": "uint256",
          "name": "sessionId",
          "type": "uint256"
        },
        {
          "indexed": true,
          "internalType": "string",
          "name": "cid",
          "type": "string"
        },
        {
          "indexed": false,
          "internalType": "uint256",
          "name": "finalizedAt",
          "type": "uint256"
        }
      ],
      "name": "SessionFinalized",
      "type": "event"
    },
    {
      "inputs": [
        {
          "internalType": "uint256",
          "name": "sessionId",
          "type": "uint256"
        }
      ],
      "name": "cancelSession",
      "outputs": [],
      "stateMutability": "nonpayable",
      "type": "function"
    },
    {
      "inputs": [
        {
          "internalType": "string",
          "name": "",
          "type": "string"
        },
        {
          "internalType": "uint256",
          "name": "",
          "type": "uint256"
        }
      ],
      "name": "cidSessions",
      "outputs": [
        {
          "internalType": "uint256",
          "name": "",
          "type": "uint256"
        }
      ],
      "stateMutability": "view",
      "type": "function"
    },
    {
      "inputs": [
        {
          "internalType": "string",
          "name": "cid",
          "type": "string"
        },
        {
          "internalType": "address[]",
          "name": "signers",
          "type": "address[]"
        },
        {
          "internalType": "uint256",
          "name": "deadline",
          "type": "uint256"
        }
      ],
      "name": "createSigningSession",
      "outputs": [
        {
          "internalType": "uint256",
          "name": "",
          "type": "uint256"
        }
      ],
      "stateMutability": "nonpayable",
      "type": "function"
    },
    {
      "inputs": [
        {
          "internalType": "uint256",
          "name": "sessionId",
          "type": "uint256"
        }
      ],
      "name": "getSession",
      "outputs": [
        {
          "components": [
            {
              "internalType": "string",
              "name": "cid",
              "type": "string"
            },
            {
              "internalType": "address",
              "name": "initiator",
              "type": "address"
            },
            {
              "internalType": "address[]",
              "name": "requiredSigners",
              "type": "address[]"
            },
            {
              "internalType": "uint256",
              "name": "deadline",
              "type": "uint256"
            },
            {
              "internalType": "enum DocVaultSigning.SessionStatus",
              "name": "status",
              "type": "uint8"
            },
            {
              "internalType": "uint256",
              "name": "createdAt",
              "type": "uint256"
            },
            {
              "internalType": "uint256",
              "name": "finalizedAt",
              "type": "uint256"
            }
          ],
          "internalType": "struct DocVaultSigning.SigningSession",
          "name": "",
          "type": "tuple"
        }
      ],
      "stateMutability": "view",
      "type": "function"
    },
    {
      "inputs": [
        {
          "internalType": "string",
          "name": "cid",
          "type": "string"
        }
      ],
      "name": "getSessionsByCid",
      "outputs": [
        {
          "internalType": "uint256[]",
          "name": "",
          "type": "uint256[]"
        }
      ],
      "stateMutability": "view",
      "type": "function"
    },
    {
      "inputs": [
        {
          "internalType": "uint256",
          "name": "sessionId",
          "type": "uint256"
        },
        {
          "internalType": "address",
          "name": "signer",
          "type": "address"
        }
      ],
      "name": "getSignerRecord",
      "outputs": [
        {
          "components": [
            {
              "internalType": "bool",
              "name": "signed",
              "type": "bool"
            },
            {
              "internalType": "uint256",
              "name": "signedAt",
              "type": "uint256"
            },
            {
              "internalType": "bytes",
              "name": "signature",
              "type": "bytes"
            }
          ],
          "internalType": "struct DocVaultSigning.SignerRecord",
          "name": "",
          "type": "tuple"
        }
      ],
      "stateMutability": "view",
      "type": "function"
    },
    {
      "inputs": [
        {
          "internalType": "uint256",
          "name": "sessionId",
          "type": "uint256"
        }
      ],
      "name": "getSigningStatus",
      "outputs": [
        {
          "internalType": "address[]",
          "name": "signers",
          "type": "address[]"
        },
        {
          "internalType": "bool[]",
          "name": "signed",
          "type": "bool[]"
        }
      ],
      "stateMutability": "view",
      "type": "function"
    },
    {
      "inputs": [
        {
          "internalType": "uint256",
          "name": "",
          "type": "uint256"
        }
      ],
      "name": "sessions",
      "outputs": [
        {
          "internalType": "string",
          "name": "cid",
          "type": "string"
        },
        {
          "internalType": "address",
          "name": "initiator",
          "type": "address"
        },
        {
          "internalType": "uint256",
          "name": "deadline",
          "type": "uint256"
        },
        {
          "internalType": "enum DocVaultSigning.SessionStatus",
          "name": "status",
          "type": "uint8"
        },
        {
          "internalType": "uint256",
          "name": "createdAt",
          "type": "uint256"
        },
        {
          "internalType": "uint256",
          "name": "finalizedAt",
          "type": "uint256"
        }
      ],
      "stateMutability": "view",
      "type": "function"
    },
    {
      "inputs": [
        {
          "internalType": "uint256",
          "name": "sessionId",
          "type": "uint256"
        },
        {
          "internalType": "bytes",
          "name": "signature",
          "type": "bytes"
        }
      ],
      "name": "sign",
      "outputs": [],
      "stateMutability": "nonpayable",
      "type": "function"
    },
    {
      "inputs": [
        {
          "internalType": "uint256",
          "name": "",
          "type": "uint256"
        }
      ],
      "name": "signatureCount",
      "outputs": [
        {
          "internalType": "uint256",
          "name": "",
          "type": "uint256"
        }
      ],
      "stateMutability": "view",
      "type": "function"
    },
    {
      "inputs": [
        {
          "internalType": "uint256",
          "name": "",
          "type": "uint256"
        },
        {
          "internalType": "address",
          "name": "",
          "type": "address"
        }
      ],
      "name": "signerRecords",
      "outputs": [
        {
          "internalType": "bool",
          "name": "signed",
          "type": "bool"
        },
        {
          "internalType": "uint256",
          "name": "signedAt",
          "type": "uint256"
        },
        {
          "internalType": "bytes",
          "name": "signature",
          "type": "bytes"
        }
      ],
      "stateMutability": "view",
      "type": "function"
    },
    {
      "inputs": [],
      "name": "storageContract",
      "outputs": [
        {
          "internalType": "contract DocVaultStorage",
          "name": "",
          "type": "address"
        }
      ],
      "stateMutability": "view",
      "type": "function"
    }
  ],
  "bytecode": "0x60a0604052348015600e575f5ffd5b50604051611a90380380611a90833981016040819052602b91603b565b6001600160a01b03166080526066565b5f60208284031215604a575f5ffd5b81516001600160a01b0381168114605f575f5ffd5b9392505050565b608051611a0561008b5f395f818160ba0152818161025501526103060152611a055ff3fe608060405234801561000f575f5ffd5b50600436106100b1575f3560e01c8063979774bd1161006e578063979774bd146101925780639b3d270a146101b3578063a45e6912146101c8578063c20cf8a1146101e7578063e27f937014610207578063ed80f3a81461021a575f5ffd5b806311ce0267146100b557806325bd0f64146100f957806330031c3b1461011a578063402ff0db1461013a5780635c6062371461015a57806383c4b7a31461016d575b5f5ffd5b6100dc7f000000000000000000000000000000000000000000000000000000000000000081565b6040516001600160a01b0390911681526020015b60405180910390f35b61010c61010736600461117d565b61023c565b6040519081526020016100f0565b61012d610128366004611237565b6105dc565b6040516100f09190611293565b61014d6101483660046112cb565b6106d2565b6040516100f09190611316565b61010c6101683660046113e8565b610848565b61018061017b3660046112cb565b610884565b6040516100f09695949392919061149d565b6101a56101a03660046112cb565b61094b565b6040516100f09291906114e8565b6101c66101c1366004611573565b610ba0565b005b61010c6101d63660046112cb565b60036020525f908152604090205481565b6101fa6101f53660046115bb565b610e6c565b6040516100f091906115fa565b6101c66102153660046112cb565b610edd565b61022d610228366004611237565b610fb9565b6040516100f09392919061163c565b60405163a77015d160e01b81525f906001600160a01b037f0000000000000000000000000000000000000000000000000000000000000000169063a77015d19061028c9089908990600401611665565b602060405180830381865afa1580156102a7573d5f5f3e3d5ffd5b505050506040513d601f19601f820116820180604052508101906102cb9190611693565b6102f5578585604051635196b5a360e01b81526004016102ec929190611665565b60405180910390fd5b604051632557a50960e11b815233907f00000000000000000000000000000000000000000000000000000000000000006001600160a01b031690634aaf4a1290610345908a908a90600401611665565b602060405180830381865afa158015610360573d5f5f3e3d5ffd5b505050506040513d601f19601f8201168201806040525081019061038491906116b9565b6001600160a01b0316146103af5785856040516336889f4f60e01b81526004016102ec929190611665565b5f8390036103d0576040516351be11bf60e01b815260040160405180910390fd5b6103dc42610e106116e8565b8210156103fb576040516296ff9960e31b815260040160405180910390fd5b5f5f5f8154610409906116fb565b9182905550604080516101006020601f8b01819004028201810190925260e081018981529293509182918a908a90819085018382808284375f92019190915250505090825250336020808301919091526040805188830281810184018352898252919093019291899189918291908501908490808284375f9201829052509385525050506020808301879052604080840183905242606085015260809093018290528482526001905220815181906104c19082611794565b506020828101516001830180546001600160a01b0319166001600160a01b0390921691909117905560408301518051610500926002850192019061106f565b5060608201516003820155608082015160048201805460ff1916600183600281111561052e5761052e6112e2565b021790555060a0820151816005015560c082015181600601559050506004878760405161055c92919061184f565b908152604051908190036020908101822080546001810182555f9182529190200182905561058d908890889061184f565b6040518091039020817e8a32d7e3010366afe29e9af08b5f1f47d403ecaa113e283368e54f12a5da9f338888886040516105ca949392919061185e565b60405180910390a39695505050505050565b60408051606080820183525f8083526020830152918101919091525f8381526002602081815260408084206001600160a01b03871685528252928390208351606081018552815460ff16151581526001820154928101929092529182018054919384019161064990611713565b80601f016020809104026020016040519081016040528092919081815260200182805461067590611713565b80156106c05780601f10610697576101008083540402835291602001916106c0565b820191905f5260205f20905b8154815290600101906020018083116106a357829003601f168201915b50505050508152505090505b92915050565b6106da6110d2565b5f8281526001602052604090819020815160e0810190925280548290829061070190611713565b80601f016020809104026020016040519081016040528092919081815260200182805461072d90611713565b80156107785780601f1061074f57610100808354040283529160200191610778565b820191905f5260205f20905b81548152906001019060200180831161075b57829003601f168201915b505050918352505060018201546001600160a01b031660208083019190915260028301805460408051828502810185018252828152940193928301828280156107e857602002820191905f5260205f20905b81546001600160a01b031681526001909101906020018083116107ca575b505050918352505060038201546020820152600482015460409091019060ff166002811115610819576108196112e2565b600281111561082a5761082a6112e2565b81526005820154602082015260069091015460409091015292915050565b81516020818401810180516004825292820191850191909120919052805482908110610872575f80fd5b905f5260205f20015f91509150505481565b60016020525f908152604090208054819061089e90611713565b80601f01602080910402602001604051908101604052809291908181526020018280546108ca90611713565b80156109155780601f106108ec57610100808354040283529160200191610915565b820191905f5260205f20905b8154815290600101906020018083116108f857829003601f168201915b505050600184015460038501546004860154600587015460069097015495966001600160a01b039093169591945060ff16925086565b6060805f60015f8581526020019081526020015f206040518060e00160405290815f8201805461097a90611713565b80601f01602080910402602001604051908101604052809291908181526020018280546109a690611713565b80156109f15780601f106109c8576101008083540402835291602001916109f1565b820191905f5260205f20905b8154815290600101906020018083116109d457829003601f168201915b505050918352505060018201546001600160a01b03166020808301919091526002830180546040805182850281018501825282815294019392830182828015610a6157602002820191905f5260205f20905b81546001600160a01b03168152600190910190602001808311610a43575b505050918352505060038201546020820152600482015460409091019060ff166002811115610a9257610a926112e2565b6002811115610aa357610aa36112e2565b815260200160058201548152602001600682015481525050905080604001519250825167ffffffffffffffff811115610ade57610ade6113d4565b604051908082528060200260200182016040528015610b07578160200160208202803683370190505b5091505f5b8351811015610b995760025f8681526020019081526020015f205f858381518110610b3957610b396118c4565b60200260200101516001600160a01b03166001600160a01b031681526020019081526020015f205f015f9054906101000a900460ff16838281518110610b8157610b816118c4565b91151560209283029190910190910152600101610b0c565b5050915091565b5f8381526001602052604081206005810154909103610bd5576040516395e2fa3760e01b8152600481018590526024016102ec565b5f600482015460ff166002811115610bef57610bef6112e2565b14610c1057604051631c183d3d60e21b8152600481018590526024016102ec565b8060030154421115610c385760405163bfb22adf60e01b8152600481018590526024016102ec565b5f805b6002830154811015610c9057336001600160a01b0316836002018281548110610c6657610c666118c4565b5f918252602090912001546001600160a01b031603610c885760019150610c90565b600101610c3b565b5080610cb857604051630338fef960e21b8152600481018690523360248201526044016102ec565b5f85815260026020908152604080832033845290915290205460ff1615610cfb5760405163f4d7089960e01b8152600481018690523360248201526044016102ec565b604051806060016040528060011515815260200142815260200185858080601f0160208091040260200160405190810160405280939291908181526020018383808284375f9201829052509390945250508781526002602081815260408084203385528252928390208551815460ff191690151517815590850151600182015591840151919250820190610d8f9082611794565b5050505f858152600360205260408120805491610dab836116fb565b9091555050604051428152339086907fe7324c4138a9f505bfe9d1de2fbfe2aef2ef2fee70ea9d93b5b2d348a1bbdd2a9060200160405180910390a360028201545f8681526003602052604090205403610e655760048201805460ff19166001179055426006830155604051610e229083906118d8565b6040518091039020857f5d7347f0d83b67ba5fe9010eeb06d118b384be8d804d450a117e90bfb67acb0142604051610e5c91815260200190565b60405180910390a35b5050505050565b606060048383604051610e8092919061184f565b9081526040805191829003602090810183208054808302850183019093528284529190830182828015610ed057602002820191905f5260205f20905b815481526020019060010190808311610ebc575b5050505050905092915050565b5f8181526001602052604081206005810154909103610f12576040516395e2fa3760e01b8152600481018390526024016102ec565b5f600482015460ff166002811115610f2c57610f2c6112e2565b14610f4d57604051631c183d3d60e21b8152600481018390526024016102ec565b60018101546001600160a01b03163314610f7c576040516336889f4f60e01b81526102ec908290600401611949565b60048101805460ff1916600217905560405182907f83db11557caa3518e394ee3589033b042b4f03f0ed0495a829208e71bfa37f05905f90a25050565b600260208181525f9384526040808520909152918352912080546001820154928201805460ff909216939291610fee90611713565b80601f016020809104026020016040519081016040528092919081815260200182805461101a90611713565b80156110655780601f1061103c57610100808354040283529160200191611065565b820191905f5260205f20905b81548152906001019060200180831161104857829003601f168201915b5050505050905083565b828054828255905f5260205f209081019282156110c2579160200282015b828111156110c257825182546001600160a01b0319166001600160a01b0390911617825560209092019160019091019061108d565b506110ce929150611124565b5090565b6040518060e00160405280606081526020015f6001600160a01b03168152602001606081526020015f81526020015f6002811115611112576111126112e2565b81526020015f81526020015f81525090565b5b808211156110ce575f8155600101611125565b5f5f83601f840112611148575f5ffd5b50813567ffffffffffffffff81111561115f575f5ffd5b602083019150836020828501011115611176575f5ffd5b9250929050565b5f5f5f5f5f60608688031215611191575f5ffd5b853567ffffffffffffffff8111156111a7575f5ffd5b6111b388828901611138565b909650945050602086013567ffffffffffffffff8111156111d2575f5ffd5b8601601f810188136111e2575f5ffd5b803567ffffffffffffffff8111156111f8575f5ffd5b8860208260051b840101111561120c575f5ffd5b959894975060200195604001359392505050565b6001600160a01b0381168114611234575f5ffd5b50565b5f5f60408385031215611248575f5ffd5b82359150602083013561125a81611220565b809150509250929050565b5f81518084528060208401602086015e5f602082860101526020601f19601f83011685010191505092915050565b60208152815115156020820152602082015160408201525f60408301516060808401526112c36080840182611265565b949350505050565b5f602082840312156112db575f5ffd5b5035919050565b634e487b7160e01b5f52602160045260245ffd5b6003811061131257634e487b7160e01b5f52602160045260245ffd5b9052565b602081525f825160e06020840152611332610100840182611265565b6020858101516001600160a01b0316604086810191909152860151858303601f19016060870152805180845290820193505f92909101905b808310156113955783516001600160a01b03168252602093840193600193909301929091019061136a565b5060608601516080860152608086015192506113b460a08601846112f6565b60a086015160c086015260c086015160e086015280935050505092915050565b634e487b7160e01b5f52604160045260245ffd5b5f5f604083850312156113f9575f5ffd5b823567ffffffffffffffff81111561140f575f5ffd5b8301601f8101851361141f575f5ffd5b803567ffffffffffffffff811115611439576114396113d4565b604051601f8201601f19908116603f0116810167ffffffffffffffff81118282101715611468576114686113d4565b60405281815282820160200187101561147f575f5ffd5b816020840160208301375f6020928201830152969401359450505050565b60c081525f6114af60c0830189611265565b6001600160a01b03881660208401526040830187905290506114d460608301866112f6565b608082019390935260a00152949350505050565b604080825283519082018190525f9060208501906060840190835b8181101561152a5783516001600160a01b0316835260209384019390920191600101611503565b5050838103602080860191909152855180835291810192508501905f5b818110156115675782511515845260209384019390920191600101611547565b50919695505050505050565b5f5f5f60408486031215611585575f5ffd5b83359250602084013567ffffffffffffffff8111156115a2575f5ffd5b6115ae86828701611138565b9497909650939450505050565b5f5f602083850312156115cc575f5ffd5b823567ffffffffffffffff8111156115e2575f5ffd5b6115ee85828601611138565b90969095509350505050565b602080825282518282018190525f918401906040840190835b81811015611631578351835260209384019390920191600101611613565b509095945050505050565b8315158152826020820152606060408201525f61165c6060830184611265565b95945050505050565b60208152816020820152818360408301375f818301604090810191909152601f909201601f19160101919050565b5f602082840312156116a3575f5ffd5b815180151581146116b2575f5ffd5b9392505050565b5f602082840312156116c9575f5ffd5b81516116b281611220565b634e487b7160e01b5f52601160045260245ffd5b808201808211156106cc576106cc6116d4565b5f6001820161170c5761170c6116d4565b5060010190565b600181811c9082168061172757607f821691505b60208210810361174557634e487b7160e01b5f52602260045260245ffd5b50919050565b601f82111561178f57805f5260205f20601f840160051c810160208510156117705750805b601f840160051c820191505b81811015610e65575f815560010161177c565b505050565b815167ffffffffffffffff8111156117ae576117ae6113d4565b6117c2816117bc8454611713565b8461174b565b6020601f8211600181146117f4575f83156117dd5750848201515b5f19600385901b1c1916600184901b178455610e65565b5f84815260208120601f198516915b828110156118235787850151825560209485019460019092019101611803565b508482101561184057868401515f19600387901b60f8161c191681555b50505050600190811b01905550565b818382375f9101908152919050565b6001600160a01b038516815260606020820181905281018390525f8460808301825b868110156118b057823561189381611220565b6001600160a01b0316825260209283019290910190600101611880565b506040939093019390935250949350505050565b634e487b7160e01b5f52603260045260245ffd5b5f5f83546118e581611713565b6001821680156118fc57600181146119115761193e565b60ff198316865281151582028601935061193e565b865f5260205f205f5b838110156119365781548882015260019091019060200161191a565b505081860193505b509195945050505050565b602081525f5f835461195a81611713565b806020860152600182165f811461197857600181146119945761193e565b60ff1983166040870152604082151560051b870101935061193e565b865f5260205f205f5b838110156119bc5781548882016040015260019091019060200161199d565b870160400194505050919594505050505056fea2646970667358221220cdf9a6aead9795971b261e1526c64cee7be5a17d83dc65586b32b02c7edc7c6364736f6c634300081c0033",
  "linkReferences": {},
  "deployedLinkReferences": {},
  "immutableReferences": {
    "34": [
      {
        "length": 32,
        "start": 186
      },
      {
        "length": 32,
        "start": 597
      },
      {
        "length": 32,
        "start": 774
      }
    ]
  },
  "inputSourceName": "project/contracts/DocVaultSigning.sol",
  "buildInfoId": "solc-0_8_28-62f47cd4a7c036eb2ade95732ba591c9085ece6b"
}