{
  "_format": "hh3-artifact-1",
  "contractName": "DocVaultAccess",
  "sourceName": "contracts/DocVaultAccess.sol",
  "abi": [
    {
      "inputs": [
        {
          "internalType": "address",
          "name": "storageAddress",
          "type": "address"
        }
      ],
      "stateMutability": "nonpayable",
      "type": "constructor"
    },
    {
      "inputs": [
        {
          "internalType": "string",
          "name": "cid",
          "type": "string"
        },
        {
          "internalType": "address",
          "name": "grantee",
          "type": "address"
        }
      ],
      "name": "AccessNotFound",
      "type": "error"
    },
    {
      "inputs": [],
      "name": "CannotGrantToSelf",
      "type": "error"
    },
    {
      "inputs": [
        {
          "internalType": "string",
          "name": "cid",
          "type": "string"
        }
      ],
      "name": "DocumentNotFound",
      "type": "error"
    },
    {
      "inputs": [
        {
          "internalType": "string",
          "name": "cid",
          "type": "string"
        }
      ],
      "name": "NotDocumentOwner",
      "type": "error"
    },
    {
      "anonymous": false,
      "inputs": [
        {
          "indexed": true,
          "internalType": "string",
          "name": "cid",
          "type": "string"
        },
        {
          "indexed": true,
          "internalType": "address",
          "name": "grantee",
          "type": "address"
        },
        {
          "indexed": false,
          "internalType": "uint256",
          "name": "expiresAt",
          "type": "uint256"
        },
        {
          "indexed": false,
          "internalType": "bool",
          "name": "canDownload",
          "type": "bool"
        }
      ],
      "name": "AccessGranted",
      "type": "event"
    },
    {
      "anonymous": false,
      "inputs": [
        {
          "indexed": true,
          "internalType": "string",
          "name": "cid",
          "type": "string"
        },
        {
          "indexed": true,
          "internalType": "address",
          "name": "grantee",
          "type": "address"
        }
      ],
      "name": "AccessRevoked",
      "type": "event"
    },
    {
      "inputs": [
        {
          "internalType": "string",
          "name": "cid",
          "type": "string"
        },
        {
          "internalType": "address",
          "name": "grantee",
          "type": "address"
        }
      ],
      "name": "getGrant",
      "outputs": [
        {
          "components": [
            {
              "internalType": "address",
              "name": "grantee",
              "type": "address"
            },
            {
              "internalType": "uint256",
              "name": "expiresAt",
              "type": "uint256"
            },
            {
              "internalType": "bool",
              "name": "canDownload",
              "type": "bool"
            },
            {
              "internalType": "bool",
              "name": "active",
              "type": "bool"
            },
            {
              "internalType": "address",
              "name": "grantedBy",
              "type": "address"
            },
            {
              "internalType": "uint256",
              "name": "grantedAt",
              "type": "uint256"
            }
          ],
          "internalType": "struct DocVaultAccess.AccessGrant",
          "name": "",
          "type": "tuple"
        }
      ],
      "stateMutability": "view",
      "type": "function"
    },
    {
      "inputs": [
        {
          "internalType": "string",
          "name": "cid",
          "type": "string"
        }
      ],
      "name": "getGrantees",
      "outputs": [
        {
          "internalType": "address[]",
          "name": "",
          "type": "address[]"
        }
      ],
      "stateMutability": "view",
      "type": "function"
    },
    {
      "inputs": [
        {
          "internalType": "string",
          "name": "cid",
          "type": "string"
        },
        {
          "internalType": "address",
          "name": "grantee",
          "type": "address"
        },
        {
          "internalType": "uint256",
          "name": "expiresAt",
          "type": "uint256"
        },
        {
          "internalType": "bool",
          "name": "canDownload",
          "type": "bool"
        }
      ],
      "name": "grantAccess",
      "outputs": [],
      "stateMutability": "nonpayable",
      "type": "function"
    },
    {
      "inputs": [
        {
          "internalType": "string",
          "name": "cid",
          "type": "string"
        },
        {
          "internalType": "address",
          "name": "grantee",
          "type": "address"
        },
        {
          "internalType": "address",
          "name": "docOwner",
          "type": "address"
        }
      ],
      "name": "grantAccessFromPayment",
      "outputs": [],
      "stateMutability": "nonpayable",
      "type": "function"
    },
    {
      "inputs": [
        {
          "internalType": "string",
          "name": "cid",
          "type": "string"
        },
        {
          "internalType": "address",
          "name": "user",
          "type": "address"
        }
      ],
      "name": "hasValidAccess",
      "outputs": [
        {
          "internalType": "bool",
          "name": "",
          "type": "bool"
        }
      ],
      "stateMutability": "view",
      "type": "function"
    },
    {
      "inputs": [
        {
          "internalType": "string",
          "name": "cid",
          "type": "string"
        },
        {
          "internalType": "address",
          "name": "grantee",
          "type": "address"
        }
      ],
      "name": "revokeAccess",
      "outputs": [],
      "stateMutability": "nonpayable",
      "type": "function"
    },
    {
      "inputs": [],
      "name": "storageContract",
      "outputs": [
        {
          "internalType": "contract DocVaultStorage",
          "name": "",
          "type": "address"
        }
      ],
      "stateMutability": "view",
      "type": "function"
    }
  ],
  "bytecode": "0x60a060405234801561000f575f5ffd5b5060405161109a38038061109a83398101604081905261002e9161003f565b6001600160a01b031660805261006c565b5f6020828403121561004f575f5ffd5b81516001600160a01b0381168114610065575f5ffd5b9392505050565b608051610fed6100ad5f395f8181608301528181610404015281816104ca015281816107cd0152818161085601528181610a8b0152610b480152610fed5ff3fe608060405234801561000f575f5ffd5b506004361061007a575f3560e01c8063bc9f1ca111610058578063bc9f1ca1146100f7578063be25364a1461010a578063c18f3f271461012d578063dfe0b5fe14610199575f5ffd5b806311ce02671461007e57806366351e55146100c25780637d2c170d146100e2575b5f5ffd5b6100a57f000000000000000000000000000000000000000000000000000000000000000081565b6040516001600160a01b0390911681526020015b60405180910390f35b6100d56100d0366004610d30565b6101ac565b6040516100b99190610d6f565b6100f56100f0366004610dd1565b610227565b005b6100f5610105366004610e42565b610400565b61011d610118366004610eb1565b6107b4565b60405190151581526020016100b9565b61014061013b366004610eb1565b6109c6565b6040516100b9919081516001600160a01b039081168252602080840151908301526040808401511515908301526060808401511515908301526080808401519091169082015260a0918201519181019190915260c00190565b6100f56101a7366004610eb1565b610a87565b6060600183836040516101c0929190610f04565b908152604080519182900360209081018320805480830285018301909352828452919083018282801561021a57602002820191905f5260205f20905b81546001600160a01b031681526001909101906020018083116101fc575b5050505050905092915050565b5f8484604051610238929190610f04565b90815260408051602092819003830190206001600160a01b0385165f908152925281206003015490036102b15760018484604051610277929190610f04565b9081526040516020918190038201902080546001810182555f9182529190200180546001600160a01b0319166001600160a01b0384161790555b6040518060c00160405280836001600160a01b031681526020015f8152602001600115158152602001600115158152602001826001600160a01b03168152602001428152505f8585604051610307929190610f04565b9081526040805191829003602090810183206001600160a01b038088165f81815292845291849020865181549083166001600160a01b03199091161781559286015160018401559285015160028301805460608801516080890151909616620100000262010000600160b01b03199615156101000261ff00199415159490941661ffff199092169190911792909217949094161790925560a0909301516003909301929092556103ba9086908690610f04565b604080519182900382205f835260016020840152917f25be0a9b7c4d5bddc348fdef91287ec9a317bf57aff3e1dacdbf4734c2b44bfa910160405180910390a350505050565b84847f00000000000000000000000000000000000000000000000000000000000000006001600160a01b031663a77015d183836040518363ffffffff1660e01b8152600401610450929190610f3b565b602060405180830381865afa15801561046b573d5f5f3e3d5ffd5b505050506040513d601f19601f8201168201806040525081019061048f9190610f56565b6104b9578181604051635196b5a360e01b81526004016104b0929190610f3b565b60405180910390fd5b604051632557a50960e11b815233907f00000000000000000000000000000000000000000000000000000000000000006001600160a01b031690634aaf4a12906105099086908690600401610f3b565b602060405180830381865afa158015610524573d5f5f3e3d5ffd5b505050506040513d601f19601f820116820180604052508101906105489190610f71565b6001600160a01b0316146105735781816040516336889f4f60e01b81526004016104b0929190610f3b565b336001600160a01b0386160361059c5760405163f341ee2d60e01b815260040160405180910390fd5b5f87876040516105ad929190610f04565b90815260408051602092819003830190206001600160a01b0388165f9081529252902060020154610100900460ff1615801561061e57505f87876040516105f5929190610f04565b90815260408051602092819003830190206001600160a01b0388165f9081529252902060030154155b1561066f5760018787604051610635929190610f04565b9081526040516020918190038201902080546001810182555f9182529190200180546001600160a01b0319166001600160a01b0387161790555b6040805160c0810182526001600160a01b03871681526020810186905284151581830152600160608201523360808201524260a082015290515f906106b7908a908a90610f04565b9081526040805191829003602090810183206001600160a01b03808b165f81815292845291849020865181549083166001600160a01b03199091161781559286015160018401559285015160028301805460608801516080890151909616620100000262010000600160b01b03199615156101000261ff00199415159490941661ffff199092169190911792909217949094161790925560a09093015160039093019290925561076a9089908990610f04565b604080519182900382208783528615156020840152917f25be0a9b7c4d5bddc348fdef91287ec9a317bf57aff3e1dacdbf4734c2b44bfa910160405180910390a350505050505050565b60405163a77015d160e01b81525f906001600160a01b037f0000000000000000000000000000000000000000000000000000000000000000169063a77015d1906108049087908790600401610f3b565b602060405180830381865afa15801561081f573d5f5f3e3d5ffd5b505050506040513d601f19601f820116820180604052508101906108439190610f56565b80156108ec5750816001600160a01b03167f00000000000000000000000000000000000000000000000000000000000000006001600160a01b0316634aaf4a1286866040518363ffffffff1660e01b81526004016108a2929190610f3b565b602060405180830381865afa1580156108bd573d5f5f3e3d5ffd5b505050506040513d601f19601f820116820180604052508101906108e19190610f71565b6001600160a01b0316145b156108f9575060016109bf565b5f5f858560405161090b929190610f04565b9081526040805191829003602090810183206001600160a01b038088165f9081529183529083902060c085018452805482168552600181015492850192909252600282015460ff8082161515948601949094526101008104909316151560608501819052620100009093041660808401526003015460a0830152909150610995575f9150506109bf565b6020810151158015906109ab5750806020015142115b156109b9575f9150506109bf565b60019150505b9392505050565b6040805160c0810182525f80825260208201819052918101829052606081018290526080810182905260a08101919091525f8484604051610a08929190610f04565b90815260408051602092819003830181206001600160a01b039586165f90815290845282902060c082018352805486168252600181015493820193909352600283015460ff8082161515938301939093526101008104909216151560608201526201000090910490931660808401526003015460a08301525092915050565b82827f00000000000000000000000000000000000000000000000000000000000000006001600160a01b031663a77015d183836040518363ffffffff1660e01b8152600401610ad7929190610f3b565b602060405180830381865afa158015610af2573d5f5f3e3d5ffd5b505050506040513d601f19601f82011682018060405250810190610b169190610f56565b610b37578181604051635196b5a360e01b81526004016104b0929190610f3b565b604051632557a50960e11b815233907f00000000000000000000000000000000000000000000000000000000000000006001600160a01b031690634aaf4a1290610b879086908690600401610f3b565b602060405180830381865afa158015610ba2573d5f5f3e3d5ffd5b505050506040513d601f19601f82011682018060405250810190610bc69190610f71565b6001600160a01b031614610bf15781816040516336889f4f60e01b81526004016104b0929190610f3b565b5f8585604051610c02929190610f04565b90815260408051602092819003830190206001600160a01b0386165f9081529252902060020154610100900460ff16610c5457848484604051634a33114d60e11b81526004016104b093929190610f8c565b5f5f8686604051610c66929190610f04565b9081526040805191829003602090810183206001600160a01b0388165f818152919092529190912060020180549315156101000261ff001990941693909317909255610cb59087908790610f04565b604051908190038120907fa4056635223780a71518e8c10b6fc0fd195775c8375c4841c124a959ae5c30ad905f90a35050505050565b5f5f83601f840112610cfb575f5ffd5b50813567ffffffffffffffff811115610d12575f5ffd5b602083019150836020828501011115610d29575f5ffd5b9250929050565b5f5f60208385031215610d41575f5ffd5b823567ffffffffffffffff811115610d57575f5ffd5b610d6385828601610ceb565b90969095509350505050565b602080825282518282018190525f918401906040840190835b81811015610daf5783516001600160a01b0316835260209384019390920191600101610d88565b509095945050505050565b6001600160a01b0381168114610dce575f5ffd5b50565b5f5f5f5f60608587031215610de4575f5ffd5b843567ffffffffffffffff811115610dfa575f5ffd5b610e0687828801610ceb565b9095509350506020850135610e1a81610dba565b91506040850135610e2a81610dba565b939692955090935050565b8015158114610dce575f5ffd5b5f5f5f5f5f60808688031215610e56575f5ffd5b853567ffffffffffffffff811115610e6c575f5ffd5b610e7888828901610ceb565b9096509450506020860135610e8c81610dba565b9250604086013591506060860135610ea381610e35565b809150509295509295909350565b5f5f5f60408486031215610ec3575f5ffd5b833567ffffffffffffffff811115610ed9575f5ffd5b610ee586828701610ceb565b9094509250506020840135610ef981610dba565b809150509250925092565b818382375f9101908152919050565b81835281816020850137505f828201602090810191909152601f909101601f19169091010190565b602081525f610f4e602083018486610f13565b949350505050565b5f60208284031215610f66575f5ffd5b81516109bf81610e35565b5f60208284031215610f81575f5ffd5b81516109bf81610dba565b604081525f610f9f604083018587610f13565b905060018060a01b038316602083015294935050505056fea2646970667358221220be395e34048a6f5c0b397929876b42cd1ebb8200e0d09860c94da2fbe1e7466764736f6c634300081c0033",
  "linkReferences": {},
  "deployedLinkReferences": {},
  "immutableReferences": {
    "18": [
      {
        "length": 32,
        "start": 131
      },
      {
        "length": 32,
        "start": 1028
      },
      {
        "length": 32,
        "start": 1226
      },
      {
        "length": 32,
        "start": 1997
      },
      {
        "length": 32,
        "start": 2134
      },
      {
        "length": 32,
        "start": 2699
      },
      {
        "length": 32,
        "start": 2888
      }
    ]
  },
  "inputSourceName": "project/contracts/DocVaultAccess.sol",
  "buildInfoId": "solc-0_8_28-d3acca71c7e5e8d94826218239dae185f31eb18d"
}