{
  "_format": "hh3-artifact-1",
  "contractName": "DocVaultStorage",
  "sourceName": "contracts/DocVaultStorage.sol",
  "abi": [
    {
      "inputs": [
        {
          "internalType": "string",
          "name": "cid",
          "type": "string"
        }
      ],
      "name": "CIDAlreadyExists",
      "type": "error"
    },
    {
      "inputs": [
        {
          "internalType": "string",
          "name": "cid",
          "type": "string"
        }
      ],
      "name": "DocumentNotFound",
      "type": "error"
    },
    {
      "inputs": [],
      "name": "EmptyCID",
      "type": "error"
    },
    {
      "inputs": [],
      "name": "EmptyOffchainId",
      "type": "error"
    },
    {
      "inputs": [
        {
          "internalType": "string",
          "name": "cid",
          "type": "string"
        },
        {
          "internalType": "address",
          "name": "caller",
          "type": "address"
        }
      ],
      "name": "NotDocumentOwner",
      "type": "error"
    },
    {
      "anonymous": false,
      "inputs": [
        {
          "indexed": true,
          "internalType": "address",
          "name": "owner",
          "type": "address"
        },
        {
          "indexed": true,
          "internalType": "string",
          "name": "cid",
          "type": "string"
        },
        {
          "indexed": false,
          "internalType": "string",
          "name": "offchainId",
          "type": "string"
        },
        {
          "indexed": false,
          "internalType": "uint256",
          "name": "storedAt",
          "type": "uint256"
        },
        {
          "indexed": false,
          "internalType": "bool",
          "name": "aiVerified",
          "type": "bool"
        }
      ],
      "name": "DocumentStored",
      "type": "event"
    },
    {
      "anonymous": false,
      "inputs": [
        {
          "indexed": true,
          "internalType": "string",
          "name": "cid",
          "type": "string"
        },
        {
          "indexed": false,
          "internalType": "bool",
          "name": "isPublic",
          "type": "bool"
        }
      ],
      "name": "DocumentVisibilityChanged",
      "type": "event"
    },
    {
      "inputs": [
        {
          "internalType": "string",
          "name": "cid",
          "type": "string"
        }
      ],
      "name": "cidExists",
      "outputs": [
        {
          "internalType": "bool",
          "name": "",
          "type": "bool"
        }
      ],
      "stateMutability": "view",
      "type": "function"
    },
    {
      "inputs": [
        {
          "internalType": "string",
          "name": "cid",
          "type": "string"
        }
      ],
      "name": "getDocument",
      "outputs": [
        {
          "components": [
            {
              "internalType": "string",
              "name": "cid",
              "type": "string"
            },
            {
              "internalType": "string",
              "name": "offchainId",
              "type": "string"
            },
            {
              "internalType": "address",
              "name": "owner",
              "type": "address"
            },
            {
              "internalType": "uint256",
              "name": "storedAt",
              "type": "uint256"
            },
            {
              "internalType": "bool",
              "name": "aiVerified",
              "type": "bool"
            },
            {
              "internalType": "bool",
              "name": "isPublic",
              "type": "bool"
            },
            {
              "internalType": "uint8",
              "name": "docType",
              "type": "uint8"
            }
          ],
          "internalType": "struct DocVaultStorage.Document",
          "name": "",
          "type": "tuple"
        }
      ],
      "stateMutability": "view",
      "type": "function"
    },
    {
      "inputs": [
        {
          "internalType": "string",
          "name": "cid",
          "type": "string"
        }
      ],
      "name": "getOwner",
      "outputs": [
        {
          "internalType": "address",
          "name": "",
          "type": "address"
        }
      ],
      "stateMutability": "view",
      "type": "function"
    },
    {
      "inputs": [
        {
          "internalType": "address",
          "name": "owner",
          "type": "address"
        }
      ],
      "name": "getOwnerCIDs",
      "outputs": [
        {
          "internalType": "string[]",
          "name": "",
          "type": "string[]"
        }
      ],
      "stateMutability": "view",
      "type": "function"
    },
    {
      "inputs": [
        {
          "internalType": "string",
          "name": "cid",
          "type": "string"
        },
        {
          "internalType": "bool",
          "name": "isPublic",
          "type": "bool"
        }
      ],
      "name": "setPublic",
      "outputs": [],
      "stateMutability": "nonpayable",
      "type": "function"
    },
    {
      "inputs": [
        {
          "internalType": "string",
          "name": "cid",
          "type": "string"
        },
        {
          "internalType": "string",
          "name": "offchainId",
          "type": "string"
        },
        {
          "internalType": "bool",
          "name": "aiVerified",
          "type": "bool"
        },
        {
          "internalType": "bool",
          "name": "isPublic",
          "type": "bool"
        },
        {
          "internalType": "uint8",
          "name": "docType",
          "type": "uint8"
        }
      ],
      "name": "storeDocument",
      "outputs": [],
      "stateMutability": "nonpayable",
      "type": "function"
    },
    {
      "inputs": [],
      "name": "totalDocuments",
      "outputs": [
        {
          "internalType": "uint256",
          "name": "",
          "type": "uint256"
        }
      ],
      "stateMutability": "view",
      "type": "function"
    }
  ],
  "bytecode": "0x6080604052348015600e575f5ffd5b50610ef88061001c5f395ff3fe608060405234801561000f575f5ffd5b506004361061007a575f3560e01c8063553181ec11610058578063553181ec146100d65780637ccb6a64146100ed5780637d6282681461010d578063a77015d11461012d575f5ffd5b806343f420c91461007e578063484af658146100935780634aaf4a12146100a6575b5f5ffd5b61009161008c366004610967565b610150565b005b6100916100a1366004610a10565b610428565b6100b96100b4366004610a60565b61055a565b6040516001600160a01b0390911681526020015b60405180910390f35b6100df60035481565b6040519081526020016100cd565b6101006100fb366004610a60565b6105da565b6040516100cd9190610acd565b61012061011b366004610b59565b6107f6565b6040516100cd9190610b86565b61014061013b366004610a60565b6108e0565b60405190151581526020016100cd565b5f8690036101715760405163063ee91d60e41b815260040160405180910390fd5b5f849003610192576040516305627fe360e51b815260040160405180910390fd5b600287876040516101a4929190610be9565b9081526040519081900360200190205460ff16156101e257868660405163326190bf60e01b81526004016101d9929190610c20565b60405180910390fd5b6040518060e0016040528088888080601f0160208091040260200160405190810160405280939291908181526020018383808284375f92019190915250505090825250604080516020601f8901819004810282018101909252878152918101919088908890819084018382808284375f920182905250938552505033602084015250426040808401919091528615156060840152851515608084015260ff851660a090930192909252905161029a908a908a90610be9565b908152604051908190036020019020815181906102b79082610cd3565b50602082015160018201906102cc9082610cd3565b506040828101516002830180546001600160a01b039092166001600160a01b03199092169190911790556060830151600383015560808301516004909201805460a085015160c09095015160ff16620100000262ff0000199515156101000261ff00199515159590951661ffff1990921691909117939093179390931691909117909155335f9081526001602081815292822080549182018155825291902001610377878983610d8e565b5060016002888860405161038c929190610be9565b908152604051908190036020019020805491151560ff1990921691909117905560038054905f6103bb83610e48565b919050555086866040516103d0929190610be9565b6040518091039020336001600160a01b03167f3134bd0da2eb92d49513c083e9af8dbe149631c3db42d09bffa1a22d7d23e1e4878742886040516104179493929190610e6c565b60405180910390a350505050505050565b82826002828260405161043c929190610be9565b9081526040519081900360200190205460ff16610470578181604051635196b5a360e01b81526004016101d9929190610c20565b8484336001600160a01b03165f838360405161048d929190610be9565b908152604051908190036020019020600201546001600160a01b0316146104cd57818133604051637034117960e11b81526004016101d993929190610e97565b845f88886040516104df929190610be9565b90815260405190819003602001812060040180549215156101000261ff0019909316929092179091556105159088908890610be9565b6040519081900381208615158252907f6116d5112538eb2aeb8feeb10af9211761b98383e168d311b3453de2ef5807f19060200160405180910390a250505050505050565b5f82826002828260405161056f929190610be9565b9081526040519081900360200190205460ff166105a3578181604051635196b5a360e01b81526004016101d9929190610c20565b5f85856040516105b4929190610be9565b908152604051908190036020019020600201546001600160a01b03169250505092915050565b6040805160e0810182526060808252602082018190525f92820183905281018290526080810182905260a0810182905260c0810191909152828260028282604051610626929190610be9565b9081526040519081900360200190205460ff1661065a578181604051635196b5a360e01b81526004016101d9929190610c20565b5f858560405161066b929190610be9565b90815260200160405180910390206040518060e00160405290815f8201805461069390610c4f565b80601f01602080910402602001604051908101604052809291908181526020018280546106bf90610c4f565b801561070a5780601f106106e15761010080835404028352916020019161070a565b820191905f5260205f20905b8154815290600101906020018083116106ed57829003601f168201915b5050505050815260200160018201805461072390610c4f565b80601f016020809104026020016040519081016040528092919081815260200182805461074f90610c4f565b801561079a5780601f106107715761010080835404028352916020019161079a565b820191905f5260205f20905b81548152906001019060200180831161077d57829003601f168201915b505050918352505060028201546001600160a01b031660208201526003820154604082015260049091015460ff808216151560608401526101008204811615156080840152620100009091041660a09091015295945050505050565b6001600160a01b0381165f908152600160209081526040808320805482518185028101850190935280835260609492939192909184015b828210156108d5578382905f5260205f2001805461084a90610c4f565b80601f016020809104026020016040519081016040528092919081815260200182805461087690610c4f565b80156108c15780601f10610898576101008083540402835291602001916108c1565b820191905f5260205f20905b8154815290600101906020018083116108a457829003601f168201915b50505050508152602001906001019061082d565b505050509050919050565b5f600283836040516108f3929190610be9565b9081526040519081900360200190205460ff16905092915050565b5f5f83601f84011261091e575f5ffd5b50813567ffffffffffffffff811115610935575f5ffd5b60208301915083602082850101111561094c575f5ffd5b9250929050565b80358015158114610962575f5ffd5b919050565b5f5f5f5f5f5f5f60a0888a03121561097d575f5ffd5b873567ffffffffffffffff811115610993575f5ffd5b61099f8a828b0161090e565b909850965050602088013567ffffffffffffffff8111156109be575f5ffd5b6109ca8a828b0161090e565b90965094506109dd905060408901610953565b92506109eb60608901610953565b9150608088013560ff81168114610a00575f5ffd5b8091505092959891949750929550565b5f5f5f60408486031215610a22575f5ffd5b833567ffffffffffffffff811115610a38575f5ffd5b610a448682870161090e565b9094509250610a57905060208501610953565b90509250925092565b5f5f60208385031215610a71575f5ffd5b823567ffffffffffffffff811115610a87575f5ffd5b610a938582860161090e565b90969095509350505050565b5f81518084528060208401602086015e5f602082860101526020601f19601f83011685010191505092915050565b602081525f825160e06020840152610ae9610100840182610a9f565b90506020840151601f19848303016040850152610b068282610a9f565b91505060018060a01b036040850151166060840152606084015160808401526080840151151560a084015260a0840151151560c084015260c0840151610b5160e085018260ff169052565b509392505050565b5f60208284031215610b69575f5ffd5b81356001600160a01b0381168114610b7f575f5ffd5b9392505050565b5f602082016020835280845180835260408501915060408160051b8601019250602086015f5b82811015610bdd57603f19878603018452610bc8858351610a9f565b94506020938401939190910190600101610bac565b50929695505050505050565b818382375f9101908152919050565b81835281816020850137505f828201602090810191909152601f909101601f19169091010190565b602081525f610c33602083018486610bf8565b949350505050565b634e487b7160e01b5f52604160045260245ffd5b600181811c90821680610c6357607f821691505b602082108103610c8157634e487b7160e01b5f52602260045260245ffd5b50919050565b601f821115610cce57805f5260205f20601f840160051c81016020851015610cac5750805b601f840160051c820191505b81811015610ccb575f8155600101610cb8565b50505b505050565b815167ffffffffffffffff811115610ced57610ced610c3b565b610d0181610cfb8454610c4f565b84610c87565b6020601f821160018114610d33575f8315610d1c5750848201515b5f19600385901b1c1916600184901b178455610ccb565b5f84815260208120601f198516915b82811015610d625787850151825560209485019460019092019101610d42565b5084821015610d7f57868401515f19600387901b60f8161c191681555b50505050600190811b01905550565b67ffffffffffffffff831115610da657610da6610c3b565b610dba83610db48354610c4f565b83610c87565b5f601f841160018114610deb575f8515610dd45750838201355b5f19600387901b1c1916600186901b178355610ccb565b5f83815260208120601f198716915b82811015610e1a5786850135825560209485019460019092019101610dfa565b5086821015610e36575f1960f88860031b161c19848701351681555b505060018560011b0183555050505050565b5f60018201610e6557634e487b7160e01b5f52601160045260245ffd5b5060010190565b606081525f610e7f606083018688610bf8565b60208301949094525090151560409091015292915050565b604081525f610eaa604083018587610bf8565b905060018060a01b038316602083015294935050505056fea2646970667358221220a7eeba95852a7b82c62e6c3898b596b2a758ebe067b8f76a26c44adee851a43064736f6c634300081c0033",
  "linkReferences": {},
  "deployedLinkReferences": {},
  "immutableReferences": {},
  "inputSourceName": "project/contracts/DocVaultStorage.sol",
  "buildInfoId": "solc-0_8_28-ecea993e15c51cfa1d1ef4fd64bd1f02b6d08dcd"
}