{
  "_format": "hh3-artifact-1",
  "contractName": "DocNFT",
  "sourceName": "contracts/DocNFT.sol",
  "abi": [
    {
      "inputs": [
        {
          "internalType": "address",
          "name": "storageAddr",
          "type": "address"
        }
      ],
      "stateMutability": "nonpayable",
      "type": "constructor"
    },
    {
      "inputs": [
        {
          "internalType": "string",
          "name": "cid",
          "type": "string"
        }
      ],
      "name": "AlreadyMinted",
      "type": "error"
    },
    {
      "inputs": [
        {
          "internalType": "string",
          "name": "cid",
          "type": "string"
        }
      ],
      "name": "DocumentNotFound",
      "type": "error"
    },
    {
      "inputs": [
        {
          "internalType": "string",
          "name": "cid",
          "type": "string"
        }
      ],
      "name": "NotDocumentOwner",
      "type": "error"
    },
    {
      "inputs": [],
      "name": "Soulbound",
      "type": "error"
    },
    {
      "anonymous": false,
      "inputs": [
        {
          "indexed": true,
          "internalType": "uint256",
          "name": "tokenId",
          "type": "uint256"
        },
        {
          "indexed": true,
          "internalType": "address",
          "name": "owner",
          "type": "address"
        },
        {
          "indexed": false,
          "internalType": "string",
          "name": "cid",
          "type": "string"
        },
        {
          "indexed": false,
          "internalType": "uint256",
          "name": "timestamp",
          "type": "uint256"
        }
      ],
      "name": "Minted",
      "type": "event"
    },
    {
      "anonymous": false,
      "inputs": [
        {
          "indexed": true,
          "internalType": "address",
          "name": "from",
          "type": "address"
        },
        {
          "indexed": true,
          "internalType": "address",
          "name": "to",
          "type": "address"
        },
        {
          "indexed": true,
          "internalType": "uint256",
          "name": "tokenId",
          "type": "uint256"
        }
      ],
      "name": "Transfer",
      "type": "event"
    },
    {
      "inputs": [
        {
          "internalType": "address",
          "name": "",
          "type": "address"
        },
        {
          "internalType": "uint256",
          "name": "",
          "type": "uint256"
        }
      ],
      "name": "approve",
      "outputs": [],
      "stateMutability": "pure",
      "type": "function"
    },
    {
      "inputs": [
        {
          "internalType": "address",
          "name": "owner",
          "type": "address"
        }
      ],
      "name": "balanceOf",
      "outputs": [
        {
          "internalType": "uint256",
          "name": "",
          "type": "uint256"
        }
      ],
      "stateMutability": "view",
      "type": "function"
    },
    {
      "inputs": [
        {
          "internalType": "string",
          "name": "",
          "type": "string"
        }
      ],
      "name": "cidToToken",
      "outputs": [
        {
          "internalType": "uint256",
          "name": "",
          "type": "uint256"
        }
      ],
      "stateMutability": "view",
      "type": "function"
    },
    {
      "inputs": [
        {
          "internalType": "string",
          "name": "cid",
          "type": "string"
        }
      ],
      "name": "mintOwnershipNFT",
      "outputs": [
        {
          "internalType": "uint256",
          "name": "",
          "type": "uint256"
        }
      ],
      "stateMutability": "nonpayable",
      "type": "function"
    },
    {
      "inputs": [
        {
          "internalType": "uint256",
          "name": "",
          "type": "uint256"
        }
      ],
      "name": "mintedAt",
      "outputs": [
        {
          "internalType": "uint256",
          "name": "",
          "type": "uint256"
        }
      ],
      "stateMutability": "view",
      "type": "function"
    },
    {
      "inputs": [],
      "name": "name",
      "outputs": [
        {
          "internalType": "string",
          "name": "",
          "type": "string"
        }
      ],
      "stateMutability": "view",
      "type": "function"
    },
    {
      "inputs": [
        {
          "internalType": "uint256",
          "name": "",
          "type": "uint256"
        }
      ],
      "name": "ownerOf",
      "outputs": [
        {
          "internalType": "address",
          "name": "",
          "type": "address"
        }
      ],
      "stateMutability": "view",
      "type": "function"
    },
    {
      "inputs": [
        {
          "internalType": "address",
          "name": "",
          "type": "address"
        },
        {
          "internalType": "address",
          "name": "",
          "type": "address"
        },
        {
          "internalType": "uint256",
          "name": "",
          "type": "uint256"
        }
      ],
      "name": "safeTransferFrom",
      "outputs": [],
      "stateMutability": "pure",
      "type": "function"
    },
    {
      "inputs": [],
      "name": "storageContract",
      "outputs": [
        {
          "internalType": "contract DocVaultStorage",
          "name": "",
          "type": "address"
        }
      ],
      "stateMutability": "view",
      "type": "function"
    },
    {
      "inputs": [],
      "name": "symbol",
      "outputs": [
        {
          "internalType": "string",
          "name": "",
          "type": "string"
        }
      ],
      "stateMutability": "view",
      "type": "function"
    },
    {
      "inputs": [
        {
          "internalType": "uint256",
          "name": "",
          "type": "uint256"
        }
      ],
      "name": "tokenCID",
      "outputs": [
        {
          "internalType": "string",
          "name": "",
          "type": "string"
        }
      ],
      "stateMutability": "view",
      "type": "function"
    },
    {
      "inputs": [
        {
          "internalType": "uint256",
          "name": "tokenId",
          "type": "uint256"
        }
      ],
      "name": "tokenURI",
      "outputs": [
        {
          "internalType": "string",
          "name": "",
          "type": "string"
        }
      ],
      "stateMutability": "view",
      "type": "function"
    },
    {
      "inputs": [
        {
          "internalType": "address",
          "name": "",
          "type": "address"
        },
        {
          "internalType": "uint256",
          "name": "",
          "type": "uint256"
        }
      ],
      "name": "tokensOf",
      "outputs": [
        {
          "internalType": "uint256",
          "name": "",
          "type": "uint256"
        }
      ],
      "stateMutability": "view",
      "type": "function"
    },
    {
      "inputs": [
        {
          "internalType": "address",
          "name": "",
          "type": "address"
        },
        {
          "internalType": "address",
          "name": "",
          "type": "address"
        },
        {
          "internalType": "uint256",
          "name": "",
          "type": "uint256"
        }
      ],
      "name": "transferFrom",
      "outputs": [],
      "stateMutability": "pure",
      "type": "function"
    }
  ],
  "bytecode": "0x60e0604052601260a0908152710446f635661756c74204f776e6572736869760741b60c052600690610031908261012f565b50604080518082019091526005815264222b27aba760d91b602082015260079061005b908261012f565b50348015610067575f5ffd5b50604051611066380380611066833981016040819052610086916101e9565b6001600160a01b0316608052610216565b634e487b7160e01b5f52604160045260245ffd5b600181811c908216806100bf57607f821691505b6020821081036100dd57634e487b7160e01b5f52602260045260245ffd5b50919050565b601f82111561012a57805f5260205f20601f840160051c810160208510156101085750805b601f840160051c820191505b81811015610127575f8155600101610114565b50505b505050565b81516001600160401b0381111561014857610148610097565b61015c8161015684546100ab565b846100e3565b6020601f82116001811461018e575f83156101775750848201515b5f19600385901b1c1916600184901b178455610127565b5f84815260208120601f198516915b828110156101bd578785015182556020948501946001909201910161019d565b50848210156101da57868401515f19600387901b60f8161c191681555b50505050600190811b01905550565b5f602082840312156101f9575f5ffd5b81516001600160a01b038116811461020f575f5ffd5b9392505050565b608051610e2a61023c5f395f81816101210152818161032301526103d40152610e2a5ff3fe608060405234801561000f575f5ffd5b50600436106100e5575f3560e01c806342842e0e1161008857806370a082311161006357806370a082311461020357806395d89b411461022b578063c87b56dd14610233578063f1b0aa1514610246575f5ffd5b806342842e0e1461017c5780636352211e146101c85780636972fbb8146101f0575f5ffd5b806318594d7d116100c357806318594d7d1461015b57806323b872dd1461017c5780632f50ffe71461018a57806338a3dbae146101b5575f5ffd5b806306fdde03146100e9578063095ea7b31461010757806311ce02671461011c575b5f5ffd5b6100f1610265565b6040516100fe9190610857565b60405180910390f35b61011a6101153660046108a3565b6102f1565b005b6101437f000000000000000000000000000000000000000000000000000000000000000081565b6040516001600160a01b0390911681526020016100fe565b61016e6101693660046108cd565b61030a565b6040519081526020016100fe565b61011a61011536600461093b565b61016e61019836600461098d565b805160208183018101805160048252928201919093012091525481565b61016e6101c33660046108a3565b6105da565b6101436101d6366004610a40565b60026020525f90815260409020546001600160a01b031681565b6100f16101fe366004610a40565b610605565b61016e610211366004610a57565b6001600160a01b03165f9081526003602052604090205490565b6100f161061d565b6100f1610241366004610a40565b61062a565b61016e610254366004610a40565b60056020525f908152604090205481565b6006805461027290610a79565b80601f016020809104026020016040519081016040528092919081815260200182805461029e90610a79565b80156102e95780601f106102c0576101008083540402835291602001916102e9565b820191905f5260205f20905b8154815290600101906020018083116102cc57829003601f168201915b505050505081565b60405163a4420a9560e01b815260040160405180910390fd5b60405163a77015d160e01b81525f906001600160a01b037f0000000000000000000000000000000000000000000000000000000000000000169063a77015d19061035a9086908690600401610ad9565b602060405180830381865afa158015610375573d5f5f3e3d5ffd5b505050506040513d601f19601f820116820180604052508101906103999190610aec565b6103c3578282604051635196b5a360e01b81526004016103ba929190610ad9565b60405180910390fd5b604051632557a50960e11b815233907f00000000000000000000000000000000000000000000000000000000000000006001600160a01b031690634aaf4a12906104139087908790600401610ad9565b602060405180830381865afa15801561042e573d5f5f3e3d5ffd5b505050506040513d601f19601f820116820180604052508101906104529190610b0b565b6001600160a01b03161461047d5782826040516336889f4f60e01b81526004016103ba929190610ad9565b6004838360405161048f929190610b26565b9081526020016040518091039020545f146104c1578282604051630226686160e21b81526004016103ba929190610ad9565b5f5f5f81546104cf90610b49565b91829055505f8181526001602052604090209091506104ef848683610bad565b505f81815260026020908152604080832080546001600160a01b0319163317905560059091529081902042905551819060049061052f9087908790610b26565b908152604080516020928190038301812093909355335f81815260038452918220805460018101825590835292822090920184905583927fddf252ad1be2c89b69c2b068fc378daa952ba7f163c4a11628f55a4df523b3ef908290a4336001600160a01b0316817f684f6795945805272d5839a7063f5e0a3b6dd64bdb3976749763ec2fea1617788686426040516105c993929190610c67565b60405180910390a390505b92915050565b6003602052815f5260405f2081815481106105f3575f80fd5b905f5260205f20015f91509150505481565b60016020525f90815260409020805461027290610a79565b6007805461027290610a79565b5f818152600260205260409020546060906001600160a01b03166106875760405162461bcd60e51b8152602060048201526014602482015273151bdad95b88191bd95cc81b9bdd08195e1a5cdd60621b60448201526064016103ba565b5f828152600160205260408120805461069f90610a79565b80601f01602080910402602001604051908101604052809291908181526020018280546106cb90610a79565b80156107165780601f106106ed57610100808354040283529160200191610716565b820191905f5260205f20905b8154815290600101906020018083116106f957829003601f168201915b5050505050905061072683610751565b818260405160200161073a93929190610ca1565b604051602081830303815290604052915050919050565b6060815f036107775750506040805180820190915260018152600360fc1b602082015290565b815f5b81156107a0578061078a81610b49565b91506107999050600a83610d92565b915061077a565b5f8167ffffffffffffffff8111156107ba576107ba610979565b6040519080825280601f01601f1916602001820160405280156107e4576020820181803683370190505b5090505b841561084f57816107f881610da5565b92506108079050600a86610dba565b610812906030610dcd565b60f81b81838151811061082757610827610de0565b60200101906001600160f81b03191690815f1a905350610848600a86610d92565b94506107e8565b949350505050565b602081525f82518060208401528060208501604085015e5f604082850101526040601f19601f83011684010191505092915050565b6001600160a01b03811681146108a0575f5ffd5b50565b5f5f604083850312156108b4575f5ffd5b82356108bf8161088c565b946020939093013593505050565b5f5f602083850312156108de575f5ffd5b823567ffffffffffffffff8111156108f4575f5ffd5b8301601f81018513610904575f5ffd5b803567ffffffffffffffff81111561091a575f5ffd5b85602082840101111561092b575f5ffd5b6020919091019590945092505050565b5f5f5f6060848603121561094d575f5ffd5b83356109588161088c565b925060208401356109688161088c565b929592945050506040919091013590565b634e487b7160e01b5f52604160045260245ffd5b5f6020828403121561099d575f5ffd5b813567ffffffffffffffff8111156109b3575f5ffd5b8201601f810184136109c3575f5ffd5b803567ffffffffffffffff8111156109dd576109dd610979565b604051601f8201601f19908116603f0116810167ffffffffffffffff81118282101715610a0c57610a0c610979565b604052818152828201602001861015610a23575f5ffd5b816020840160208301375f91810160200191909152949350505050565b5f60208284031215610a50575f5ffd5b5035919050565b5f60208284031215610a67575f5ffd5b8135610a728161088c565b9392505050565b600181811c90821680610a8d57607f821691505b602082108103610aab57634e487b7160e01b5f52602260045260245ffd5b50919050565b81835281816020850137505f828201602090810191909152601f909101601f19169091010190565b602081525f61084f602083018486610ab1565b5f60208284031215610afc575f5ffd5b81518015158114610a72575f5ffd5b5f60208284031215610b1b575f5ffd5b8151610a728161088c565b818382375f9101908152919050565b634e487b7160e01b5f52601160045260245ffd5b5f60018201610b5a57610b5a610b35565b5060010190565b601f821115610ba857805f5260205f20601f840160051c81016020851015610b865750805b601f840160051c820191505b81811015610ba5575f8155600101610b92565b50505b505050565b67ffffffffffffffff831115610bc557610bc5610979565b610bd983610bd38354610a79565b83610b61565b5f601f841160018114610c0a575f8515610bf35750838201355b5f19600387901b1c1916600186901b178355610ba5565b5f83815260208120601f198716915b82811015610c395786850135825560209485019460019092019101610c19565b5086821015610c55575f1960f88860031b161c19848701351681555b505060018560011b0183555050505050565b604081525f610c7a604083018587610ab1565b9050826020830152949350505050565b5f81518060208401855e5f93019283525090919050565b7f646174613a6170706c69636174696f6e2f6a736f6e3b757466382c7b226e616d81526d65223a22446f635661756c74202360901b60208201525f610ce9602e830186610c8a565b7f222c226465736372697074696f6e223a2250726f6f66206f6620646f63756d65815274373a1037bbb732b939b434b811161131b4b2111d1160591b6020820152610d376035820186610c8a565b90507f222c22696d616765223a2268747470733a2f2f697066732e696f2f697066732f8152610d696020820185610c8a565b61227d60f01b81526002019695505050505050565b634e487b7160e01b5f52601260045260245ffd5b5f82610da057610da0610d7e565b500490565b5f81610db357610db3610b35565b505f190190565b5f82610dc857610dc8610d7e565b500690565b808201808211156105d4576105d4610b35565b634e487b7160e01b5f52603260045260245ffdfea2646970667358221220db4bb1b0c410219d465d77aac4b2fcf13128c4dd9ff1a05867218a496b41d98864736f6c634300081c0033",
  "linkReferences": {},
  "deployedLinkReferences": {},
  "immutableReferences": {
    "6": [
      {
        "length": 32,
        "start": 289
      },
      {
        "length": 32,
        "start": 803
      },
      {
        "length": 32,
        "start": 980
      }
    ]
  },
  "inputSourceName": "project/contracts/DocNFT.sol",
  "buildInfoId": "solc-0_8_28-54f8e1faf274c9b094b47420535b57ace3245498"
}